{
  "contractName": "MedicalData",
  "abi": [
    {
      "anonymous": false,
      "inputs": [
        {
          "indexed": true,
          "internalType": "address",
          "name": "patientAddress",
          "type": "address"
        },
        {
          "indexed": true,
          "internalType": "address",
          "name": "requester",
          "type": "address"
        }
      ],
      "name": "DataAccessed",
      "type": "event"
    },
    {
      "anonymous": false,
      "inputs": [
        {
          "indexed": true,
          "internalType": "address",
          "name": "patientAddress",
          "type": "address"
        }
      ],
      "name": "PatientDataUpdated",
      "type": "event"
    },
    {
      "anonymous": false,
      "inputs": [
        {
          "indexed": true,
          "internalType": "address",
          "name": "patientAddress",
          "type": "address"
        },
        {
          "indexed": false,
          "internalType": "bool",
          "name": "status",
          "type": "bool"
        }
      ],
      "name": "UnconsciousStatusUpdated",
      "type": "event"
    },
    {
      "anonymous": false,
      "inputs": [
        {
          "indexed": true,
          "internalType": "address",
          "name": "userId",
          "type": "address"
        },
        {
          "indexed": false,
          "internalType": "enum MedicalData.UserType",
          "name": "userType",
          "type": "uint8"
        },
        {
          "indexed": false,
          "internalType": "string",
          "name": "fingerprint",
          "type": "string"
        }
      ],
      "name": "UserUpdated",
      "type": "event"
    },
    {
      "inputs": [
        {
          "internalType": "uint256",
          "name": "",
          "type": "uint256"
        }
      ],
      "name": "patientList",
      "outputs": [
        {
          "internalType": "address",
          "name": "",
          "type": "address"
        }
      ],
      "stateMutability": "view",
      "type": "function",
      "constant": true
    },
    {
      "inputs": [
        {
          "internalType": "address",
          "name": "",
          "type": "address"
        }
      ],
      "name": "patients",
      "outputs": [
        {
          "internalType": "address",
          "name": "userId",
          "type": "address"
        },
        {
          "internalType": "string",
          "name": "bloodGroup",
          "type": "string"
        },
        {
          "internalType": "string",
          "name": "medicalHistory",
          "type": "string"
        },
        {
          "internalType": "bool",
          "name": "isUnconscious",
          "type": "bool"
        },
        {
          "internalType": "string",
          "name": "title",
          "type": "string"
        },
        {
          "internalType": "string",
          "name": "description",
          "type": "string"
        },
        {
          "internalType": "string",
          "name": "date",
          "type": "string"
        },
        {
          "internalType": "string",
          "name": "BP",
          "type": "string"
        },
        {
          "internalType": "string",
          "name": "Chol",
          "type": "string"
        }
      ],
      "stateMutability": "view",
      "type": "function",
      "constant": true
    },
    {
      "inputs": [
        {
          "internalType": "address",
          "name": "",
          "type": "address"
        }
      ],
      "name": "users",
      "outputs": [
        {
          "internalType": "address",
          "name": "userId",
          "type": "address"
        },
        {
          "internalType": "string",
          "name": "name",
          "type": "string"
        },
        {
          "internalType": "uint256",
          "name": "age",
          "type": "uint256"
        },
        {
          "internalType": "enum MedicalData.UserType",
          "name": "userType",
          "type": "uint8"
        },
        {
          "internalType": "string",
          "name": "fingerprint",
          "type": "string"
        }
      ],
      "stateMutability": "view",
      "type": "function",
      "constant": true
    },
    {
      "inputs": [
        {
          "internalType": "address",
          "name": "_userId",
          "type": "address"
        },
        {
          "internalType": "string",
          "name": "_name",
          "type": "string"
        },
        {
          "internalType": "uint256",
          "name": "_age",
          "type": "uint256"
        },
        {
          "internalType": "string",
          "name": "_bloodGroup",
          "type": "string"
        },
        {
          "internalType": "string",
          "name": "_medicalHistory",
          "type": "string"
        },
        {
          "internalType": "string",
          "name": "_fingerprint",
          "type": "string"
        },
        {
          "internalType": "string",
          "name": "_title",
          "type": "string"
        },
        {
          "internalType": "string",
          "name": "_description",
          "type": "string"
        },
        {
          "internalType": "string",
          "name": "_date",
          "type": "string"
        },
        {
          "internalType": "string",
          "name": "_BP",
          "type": "string"
        },
        {
          "internalType": "string",
          "name": "_Chol",
          "type": "string"
        }
      ],
      "name": "setPatientData",
      "outputs": [],
      "stateMutability": "nonpayable",
      "type": "function"
    },
    {
      "inputs": [
        {
          "internalType": "bool",
          "name": "_status",
          "type": "bool"
        }
      ],
      "name": "markUnconscious",
      "outputs": [],
      "stateMutability": "nonpayable",
      "type": "function"
    },
    {
      "inputs": [
        {
          "internalType": "address",
          "name": "_patientAddress",
          "type": "address"
        }
      ],
      "name": "getPatientData",
      "outputs": [
        {
          "internalType": "string",
          "name": "name",
          "type": "string"
        },
        {
          "internalType": "string",
          "name": "bloodGroup",
          "type": "string"
        },
        {
          "internalType": "string",
          "name": "medicalHistory",
          "type": "string"
        },
        {
          "internalType": "string",
          "name": "title",
          "type": "string"
        },
        {
          "internalType": "string",
          "name": "description",
          "type": "string"
        },
        {
          "internalType": "string",
          "name": "date",
          "type": "string"
        },
        {
          "internalType": "string",
          "name": "BP",
          "type": "string"
        },
        {
          "internalType": "string",
          "name": "Chol",
          "type": "string"
        }
      ],
      "stateMutability": "view",
      "type": "function",
      "constant": true
    },
    {
      "inputs": [
        {
          "internalType": "address",
          "name": "_patientAddress",
          "type": "address"
        }
      ],
      "name": "accessPatientData",
      "outputs": [
        {
          "internalType": "string",
          "name": "name",
          "type": "string"
        },
        {
          "internalType": "string",
          "name": "bloodGroup",
          "type": "string"
        },
        {
          "internalType": "string",
          "name": "medicalHistory",
          "type": "string"
        },
        {
          "internalType": "string",
          "name": "title",
          "type": "string"
        },
        {
          "internalType": "string",
          "name": "description",
          "type": "string"
        },
        {
          "internalType": "string",
          "name": "date",
          "type": "string"
        },
        {
          "internalType": "string",
          "name": "BP",
          "type": "string"
        },
        {
          "internalType": "string",
          "name": "Chol",
          "type": "string"
        }
      ],
      "stateMutability": "view",
      "type": "function",
      "constant": true
    },
    {
      "inputs": [],
      "name": "resetUnconsciousStatus",
      "outputs": [],
      "stateMutability": "nonpayable",
      "type": "function"
    }
  ],
  "bytecode": "0x608060405234801561001057600080fd5b506120e6806100206000396000f3fe608060405234801561001057600080fd5b50600436106100885760003560e01c8063babb1d411161005b578063babb1d411461014c578063c445cfa51461017c578063c6bd489e14610198578063d8439ff7146101a257610088565b80630869cfbc1461008d57806348e81852146100c55780637c66539a146100fc578063a87430ba14610118575b600080fd5b6100a760048036038101906100a291906117c0565b6101d9565b6040516100bc999897969594939291906118b0565b60405180910390f35b6100df60048036038101906100da91906117c0565b61060c565b6040516100f398979695949392919061196e565b60405180910390f35b61011660048036038101906101119190611b8f565b610db6565b005b610132600480360381019061012d91906117c0565b6111d4565b604051610143959493929190611e05565b60405180910390f35b61016660048036038101906101619190611e66565b611347565b6040516101739190611e93565b60405180910390f35b61019660048036038101906101919190611eda565b611386565b005b6101a0611500565b005b6101bc60048036038101906101b791906117c0565b61167b565b6040516101d098979695949392919061196e565b60405180910390f35b60006020528060005260406000206000915090508060000160009054906101000a900473ffffffffffffffffffffffffffffffffffffffff169080600101805461022290611f36565b80601f016020809104026020016040519081016040528092919081815260200182805461024e90611f36565b801561029b5780601f106102705761010080835404028352916020019161029b565b820191906000526020600020905b81548152906001019060200180831161027e57829003601f168201915b5050505050908060020180546102b090611f36565b80601f01602080910402602001604051908101604052809291908181526020018280546102dc90611f36565b80156103295780601f106102fe57610100808354040283529160200191610329565b820191906000526020600020905b81548152906001019060200180831161030c57829003601f168201915b5050505050908060030160009054906101000a900460ff169080600401805461035190611f36565b80601f016020809104026020016040519081016040528092919081815260200182805461037d90611f36565b80156103ca5780601f1061039f576101008083540402835291602001916103ca565b820191906000526020600020905b8154815290600101906020018083116103ad57829003601f168201915b5050505050908060050180546103df90611f36565b80601f016020809104026020016040519081016040528092919081815260200182805461040b90611f36565b80156104585780601f1061042d57610100808354040283529160200191610458565b820191906000526020600020905b81548152906001019060200180831161043b57829003601f168201915b50505050509080600601805461046d90611f36565b80601f016020809104026020016040519081016040528092919081815260200182805461049990611f36565b80156104e65780601f106104bb576101008083540402835291602001916104e6565b820191906000526020600020905b8154815290600101906020018083116104c957829003601f168201915b5050505050908060070180546104fb90611f36565b80601f016020809104026020016040519081016040528092919081815260200182805461052790611f36565b80156105745780601f1061054957610100808354040283529160200191610574565b820191906000526020600020905b81548152906001019060200180831161055757829003601f168201915b50505050509080600801805461058990611f36565b80601f01602080910402602001604051908101604052809291908181526020018280546105b590611f36565b80156106025780601f106105d757610100808354040283529160200191610602565b820191906000526020600020905b8154815290600101906020018083116105e557829003601f168201915b5050505050905089565b6060806060806060806060806000808a73ffffffffffffffffffffffffffffffffffffffff1673ffffffffffffffffffffffffffffffffffffffff16815260200190815260200160002060030160009054906101000a900460ff166106a6576040517f08c379a000000000000000000000000000000000000000000000000000000000815260040161069d90611fd9565b60405180910390fd5b60008060008b73ffffffffffffffffffffffffffffffffffffffff1673ffffffffffffffffffffffffffffffffffffffff168152602001908152602001600020604051806101200160405290816000820160009054906101000a900473ffffffffffffffffffffffffffffffffffffffff1673ffffffffffffffffffffffffffffffffffffffff1673ffffffffffffffffffffffffffffffffffffffff16815260200160018201805461075890611f36565b80601f016020809104026020016040519081016040528092919081815260200182805461078490611f36565b80156107d15780601f106107a6576101008083540402835291602001916107d1565b820191906000526020600020905b8154815290600101906020018083116107b457829003601f168201915b505050505081526020016002820180546107ea90611f36565b80601f016020809104026020016040519081016040528092919081815260200182805461081690611f36565b80156108635780601f1061083857610100808354040283529160200191610863565b820191906000526020600020905b81548152906001019060200180831161084657829003601f168201915b505050505081526020016003820160009054906101000a900460ff1615151515815260200160048201805461089790611f36565b80601f01602080910402602001604051908101604052809291908181526020018280546108c390611f36565b80156109105780601f106108e557610100808354040283529160200191610910565b820191906000526020600020905b8154815290600101906020018083116108f357829003601f168201915b5050505050815260200160058201805461092990611f36565b80601f016020809104026020016040519081016040528092919081815260200182805461095590611f36565b80156109a25780601f10610977576101008083540402835291602001916109a2565b820191906000526020600020905b81548152906001019060200180831161098557829003601f168201915b505050505081526020016006820180546109bb90611f36565b80601f01602080910402602001604051908101604052809291908181526020018280546109e790611f36565b8015610a345780601f10610a0957610100808354040283529160200191610a34565b820191906000526020600020905b815481529060010190602001808311610a1757829003601f168201915b50505050508152602001600782018054610a4d90611f36565b80601f0160208091040260200160405190810160405280929190818152602001828054610a7990611f36565b8015610ac65780601f10610a9b57610100808354040283529160200191610ac6565b820191906000526020600020905b815481529060010190602001808311610aa957829003601f168201915b50505050508152602001600882018054610adf90611f36565b80601f0160208091040260200160405190810160405280929190818152602001828054610b0b90611f36565b8015610b585780601f10610b2d57610100808354040283529160200191610b58565b820191906000526020600020905b815481529060010190602001808311610b3b57829003601f168201915b50505050508152505090506000600160008c73ffffffffffffffffffffffffffffffffffffffff1673ffffffffffffffffffffffffffffffffffffffff1681526020019081526020016000206040518060a00160405290816000820160009054906101000a900473ffffffffffffffffffffffffffffffffffffffff1673ffffffffffffffffffffffffffffffffffffffff1673ffffffffffffffffffffffffffffffffffffffff168152602001600182018054610c1590611f36565b80601f0160208091040260200160405190810160405280929190818152602001828054610c4190611f36565b8015610c8e5780601f10610c6357610100808354040283529160200191610c8e565b820191906000526020600020905b815481529060010190602001808311610c7157829003601f168201915b50505050508152602001600282015481526020016003820160009054906101000a900460ff166001811115610cc657610cc5611d8e565b5b6001811115610cd857610cd7611d8e565b5b8152602001600482018054610cec90611f36565b80601f0160208091040260200160405190810160405280929190818152602001828054610d1890611f36565b8015610d655780601f10610d3a57610100808354040283529160200191610d65565b820191906000526020600020905b815481529060010190602001808311610d4857829003601f168201915b505050505081525050905080602001518260200151836040015184608001518560a001518660c001518760e00151886101000151995099509950995099509950995099505050919395975091939597565b6040518060a001604052808c73ffffffffffffffffffffffffffffffffffffffff1681526020018b81526020018a815260200160006001811115610dfd57610dfc611d8e565b5b815260200187815250600160008d73ffffffffffffffffffffffffffffffffffffffff1673ffffffffffffffffffffffffffffffffffffffff16815260200190815260200160002060008201518160000160006101000a81548173ffffffffffffffffffffffffffffffffffffffff021916908373ffffffffffffffffffffffffffffffffffffffff1602179055506020820151816001019080519060200190610ea89291906116ab565b506040820151816002015560608201518160030160006101000a81548160ff02191690836001811115610ede57610edd611d8e565b5b02179055506080820151816004019080519060200190610eff9291906116ab565b509050506040518061012001604052808c73ffffffffffffffffffffffffffffffffffffffff168152602001898152602001888152602001600015158152602001868152602001858152602001848152602001838152602001828152506000808d73ffffffffffffffffffffffffffffffffffffffff1673ffffffffffffffffffffffffffffffffffffffff16815260200190815260200160002060008201518160000160006101000a81548173ffffffffffffffffffffffffffffffffffffffff021916908373ffffffffffffffffffffffffffffffffffffffff1602179055506020820151816001019080519060200190610ffd9291906116ab565b50604082015181600201908051906020019061101a9291906116ab565b5060608201518160030160006101000a81548160ff02191690831515021790555060808201518160040190805190602001906110579291906116ab565b5060a08201518160050190805190602001906110749291906116ab565b5060c08201518160060190805190602001906110919291906116ab565b5060e08201518160070190805190602001906110ae9291906116ab565b506101008201518160080190805190602001906110cc9291906116ab565b5090505060028b9080600181540180825580915050600190039060005260206000200160009091909190916101000a81548173ffffffffffffffffffffffffffffffffffffffff021916908373ffffffffffffffffffffffffffffffffffffffff1602179055508a73ffffffffffffffffffffffffffffffffffffffff167fb05415814a94a428adcbb8c806a0363450bea8896e0cceafa3ce7976ac286fa060405160405180910390a28a73ffffffffffffffffffffffffffffffffffffffff167f251c9d2c66bbd9b5bca109006122163f4a3b4f8e58df1a5da53e0091a3597d6d6000886040516111bf929190611ff9565b60405180910390a25050505050505050505050565b60016020528060005260406000206000915090508060000160009054906101000a900473ffffffffffffffffffffffffffffffffffffffff169080600101805461121d90611f36565b80601f016020809104026020016040519081016040528092919081815260200182805461124990611f36565b80156112965780601f1061126b57610100808354040283529160200191611296565b820191906000526020600020905b81548152906001019060200180831161127957829003601f168201915b5050505050908060020154908060030160009054906101000a900460ff16908060040180546112c490611f36565b80601f01602080910402602001604051908101604052809291908181526020018280546112f090611f36565b801561133d5780601f106113125761010080835404028352916020019161133d565b820191906000526020600020905b81548152906001019060200180831161132057829003601f168201915b5050505050905085565b6002818154811061135757600080fd5b906000526020600020016000915054906101000a900473ffffffffffffffffffffffffffffffffffffffff1681565b600073ffffffffffffffffffffffffffffffffffffffff166000803373ffffffffffffffffffffffffffffffffffffffff1673ffffffffffffffffffffffffffffffffffffffff16815260200190815260200160002060000160009054906101000a900473ffffffffffffffffffffffffffffffffffffffff1673ffffffffffffffffffffffffffffffffffffffff1603611456576040517f08c379a000000000000000000000000000000000000000000000000000000000815260040161144d90612075565b60405180910390fd5b806000803373ffffffffffffffffffffffffffffffffffffffff1673ffffffffffffffffffffffffffffffffffffffff16815260200190815260200160002060030160006101000a81548160ff0219169083151502179055503373ffffffffffffffffffffffffffffffffffffffff167fe2178bfb89eb32e9ac27ba279e62a94db42bfce5af29e1c463d00611abadc962826040516114f59190612095565b60405180910390a250565b600073ffffffffffffffffffffffffffffffffffffffff166000803373ffffffffffffffffffffffffffffffffffffffff1673ffffffffffffffffffffffffffffffffffffffff16815260200190815260200160002060000160009054906101000a900473ffffffffffffffffffffffffffffffffffffffff1673ffffffffffffffffffffffffffffffffffffffff16036115d0576040517f08c379a00000000000000000000000000000000000000000000000000000000081526004016115c790612075565b60405180910390fd5b60008060003373ffffffffffffffffffffffffffffffffffffffff1673ffffffffffffffffffffffffffffffffffffffff16815260200190815260200160002060030160006101000a81548160ff0219169083151502179055503373ffffffffffffffffffffffffffffffffffffffff167fe2178bfb89eb32e9ac27ba279e62a94db42bfce5af29e1c463d00611abadc96260006040516116719190612095565b60405180910390a2565b6060806060806060806060806116908961060c565b97509750975097509750975097509750919395975091939597565b8280546116b790611f36565b90600052602060002090601f0160209004810192826116d95760008555611720565b82601f106116f257805160ff1916838001178555611720565b82800160010185558215611720579182015b8281111561171f578251825591602001919060010190611704565b5b50905061172d9190611731565b5090565b5b8082111561174a576000816000905550600101611732565b5090565b6000604051905090565b600080fd5b600080fd5b600073ffffffffffffffffffffffffffffffffffffffff82169050919050565b600061178d82611762565b9050919050565b61179d81611782565b81146117a857600080fd5b50565b6000813590506117ba81611794565b92915050565b6000602082840312156117d6576117d5611758565b5b60006117e4848285016117ab565b91505092915050565b6117f681611782565b82525050565b600081519050919050565b600082825260208201905092915050565b60005b8381101561183657808201518184015260208101905061181b565b83811115611845576000848401525b50505050565b6000601f19601f8301169050919050565b6000611867826117fc565b6118718185611807565b9350611881818560208601611818565b61188a8161184b565b840191505092915050565b60008115159050919050565b6118aa81611895565b82525050565b6000610120820190506118c6600083018c6117ed565b81810360208301526118d8818b61185c565b905081810360408301526118ec818a61185c565b90506118fb60608301896118a1565b818103608083015261190d818861185c565b905081810360a0830152611921818761185c565b905081810360c0830152611935818661185c565b905081810360e0830152611949818561185c565b905081810361010083015261195e818461185c565b90509a9950505050505050505050565b6000610100820190508181036000830152611989818b61185c565b9050818103602083015261199d818a61185c565b905081810360408301526119b1818961185c565b905081810360608301526119c5818861185c565b905081810360808301526119d9818761185c565b905081810360a08301526119ed818661185c565b905081810360c0830152611a01818561185c565b905081810360e0830152611a15818461185c565b90509998505050505050505050565b600080fd5b600080fd5b7f4e487b7100000000000000000000000000000000000000000000000000000000600052604160045260246000fd5b611a668261184b565b810181811067ffffffffffffffff82111715611a8557611a84611a2e565b5b80604052505050565b6000611a9861174e565b9050611aa48282611a5d565b919050565b600067ffffffffffffffff821115611ac457611ac3611a2e565b5b611acd8261184b565b9050602081019050919050565b82818337600083830152505050565b6000611afc611af784611aa9565b611a8e565b905082815260208101848484011115611b1857611b17611a29565b5b611b23848285611ada565b509392505050565b600082601f830112611b4057611b3f611a24565b5b8135611b50848260208601611ae9565b91505092915050565b6000819050919050565b611b6c81611b59565b8114611b7757600080fd5b50565b600081359050611b8981611b63565b92915050565b60008060008060008060008060008060006101608c8e031215611bb557611bb4611758565b5b6000611bc38e828f016117ab565b9b505060208c013567ffffffffffffffff811115611be457611be361175d565b5b611bf08e828f01611b2b565b9a50506040611c018e828f01611b7a565b99505060608c013567ffffffffffffffff811115611c2257611c2161175d565b5b611c2e8e828f01611b2b565b98505060808c013567ffffffffffffffff811115611c4f57611c4e61175d565b5b611c5b8e828f01611b2b565b97505060a08c013567ffffffffffffffff811115611c7c57611c7b61175d565b5b611c888e828f01611b2b565b96505060c08c013567ffffffffffffffff811115611ca957611ca861175d565b5b611cb58e828f01611b2b565b95505060e08c013567ffffffffffffffff811115611cd657611cd561175d565b5b611ce28e828f01611b2b565b9450506101008c013567ffffffffffffffff811115611d0457611d0361175d565b5b611d108e828f01611b2b565b9350506101208c013567ffffffffffffffff811115611d3257611d3161175d565b5b611d3e8e828f01611b2b565b9250506101408c013567ffffffffffffffff811115611d6057611d5f61175d565b5b611d6c8e828f01611b2b565b9150509295989b509295989b9093969950565b611d8881611b59565b82525050565b7f4e487b7100000000000000000000000000000000000000000000000000000000600052602160045260246000fd5b60028110611dce57611dcd611d8e565b5b50565b6000819050611ddf82611dbd565b919050565b6000611def82611dd1565b9050919050565b611dff81611de4565b82525050565b600060a082019050611e1a60008301886117ed565b8181036020830152611e2c818761185c565b9050611e3b6040830186611d7f565b611e486060830185611df6565b8181036080830152611e5a818461185c565b90509695505050505050565b600060208284031215611e7c57611e7b611758565b5b6000611e8a84828501611b7a565b91505092915050565b6000602082019050611ea860008301846117ed565b92915050565b611eb781611895565b8114611ec257600080fd5b50565b600081359050611ed481611eae565b92915050565b600060208284031215611ef057611eef611758565b5b6000611efe84828501611ec5565b91505092915050565b7f4e487b7100000000000000000000000000000000000000000000000000000000600052602260045260246000fd5b60006002820490506001821680611f4e57607f821691505b602082108103611f6157611f60611f07565b5b50919050565b7f50617469656e7420697320636f6e7363696f75732e204163636573732064656e60008201527f6965642e00000000000000000000000000000000000000000000000000000000602082015250565b6000611fc3602483611807565b9150611fce82611f67565b604082019050919050565b60006020820190508181036000830152611ff281611fb6565b9050919050565b600060408201905061200e6000830185611df6565b8181036020830152612020818461185c565b90509392505050565b7f50617469656e74206e6f7420666f756e642e0000000000000000000000000000600082015250565b600061205f601283611807565b915061206a82612029565b602082019050919050565b6000602082019050818103600083015261208e81612052565b9050919050565b60006020820190506120aa60008301846118a1565b9291505056fea2646970667358221220c749dc507faedfec5351f6927bef9ee1d216d447eeaa17eafb206c1ed1cfd99f64736f6c634300080d0033",
  "immutableReferences": {},
  "source": "// SPDX-License-Identifier: MIT\npragma solidity ^0.8.0;\n\n/**\n * @title MedicalData\n * @dev A smart contract for managing patient medical data.\n */\ncontract MedicalData {\n    enum UserType { Patient, Doctor }\n\n    struct User {\n        address userId;\n        string name;\n        uint256 age;\n        UserType userType;\n        string fingerprint; // Extra field for patient\n    }\n\n    struct Patient {\n        address userId; // Changed from string to address\n        string bloodGroup;\n        string medicalHistory;\n        bool isUnconscious;\n        string title;\n        string description;\n        string date;\n        string BP;  // Blood Pressure as a string\n        string Chol; // Cholesterol level\n    }\n\n    mapping(address => Patient) public patients;\n    mapping(address => User) public users;\n    address[] public patientList;\n\n    event DataAccessed(address indexed patientAddress, address indexed requester);\n    event PatientDataUpdated(address indexed patientAddress);\n    event UnconsciousStatusUpdated(address indexed patientAddress, bool status);\n    event UserUpdated(address indexed userId, UserType userType, string fingerprint);\n\n    /**\n     * @dev Registers a new patient and sets their medical data.\n     * @param _userId The patient's unique identifier (address).\n     * @param _name The patient's name.\n     * @param _age The patient's age.\n     * @param _bloodGroup The patient's blood group.\n     * @param _medicalHistory The patient's medical history.\n     * @param _fingerprint The patient's fingerprint hash.\n     * @param _title The title of the medical report.\n     * @param _description The description of the medical report.\n     * @param _date The date of the medical report.\n     * @param _BP The blood pressure reading.\n     * @param _Chol The cholesterol level.\n     */\n    function setPatientData(\n        address _userId,\n        string memory _name,\n        uint256 _age,\n        string memory _bloodGroup,\n        string memory _medicalHistory,\n        string memory _fingerprint,\n        string memory _title,\n        string memory _description,\n        string memory _date,\n        string memory _BP,\n        string memory _Chol\n    ) public {\n        // Register the user as a patient\n        users[_userId] = User({\n            userId: _userId,\n            name: _name,\n            age: _age,\n            userType: UserType.Patient,\n            fingerprint: _fingerprint\n        });\n\n        // Set the patient's medical data\n        patients[_userId] = Patient({\n            userId: _userId,\n            bloodGroup: _bloodGroup,\n            medicalHistory: _medicalHistory,\n            isUnconscious: false,\n            title: _title,\n            description: _description,\n            date: _date,\n            BP: _BP,\n            Chol: _Chol\n        });\n\n        patientList.push(_userId);\n        emit PatientDataUpdated(_userId);\n        emit UserUpdated(_userId, UserType.Patient, _fingerprint);\n    }\n\n    /**\n     * @dev Marks the patient as unconscious or conscious.\n     * @param _status The unconscious status to set (true for unconscious, false for conscious).\n     */\n    function markUnconscious(bool _status) public {\n        // The patient can mark themselves unconscious or conscious\n        require(patients[msg.sender].userId != address(0), \"Patient not found.\");\n        patients[msg.sender].isUnconscious = _status;\n        emit UnconsciousStatusUpdated(msg.sender, _status);\n    }\n\n    /**\n     * @dev Retrieves a patient's medical data if they are unconscious.\n     * @param _patientAddress The address of the patient.\n     * @return name The patient's name.  \n     * @return bloodGroup The patient's blood group.\n     * @return medicalHistory The patient's medical history.\n     * @return title The title of the medical report.\n     * @return description The description of the medical report.\n     * @return date The date of the medical report.\n     * @return BP The blood pressure reading.\n     * @return Chol The cholesterol level.\n     */\n    function getPatientData(address _patientAddress)\n        public\n        view\n        returns (\n            string memory name,\n            string memory bloodGroup,\n            string memory medicalHistory,\n            string memory title,\n            string memory description,\n            string memory date,\n            string memory BP,\n            string memory Chol\n        )\n    {\n        require(patients[_patientAddress].isUnconscious, \"Patient is conscious. Access denied.\");\n        Patient memory p = patients[_patientAddress];\n        User memory u = users[_patientAddress];  \n        return (\n            u.name,\n            p.bloodGroup,\n            p.medicalHistory,\n            p.title,\n            p.description,\n            p.date,\n            p.BP,\n            p.Chol\n        );\n    }\n\n    /**\n     * @dev Accesses a patient's data and returns it if they are unconscious.\n     * @param _patientAddress The address of the patient.\n     * @return name The patient's name.  \n     * @return bloodGroup The patient's blood group.\n     * @return medicalHistory The patient's medical history.\n     * @return title The title of the medical report.\n     * @return description The description of the medical report.\n     * @return date The date of the medical report.\n     * @return BP The blood pressure reading.\n     * @return Chol The cholesterol level.\n     */\n    function accessPatientData(address _patientAddress)\n        public\n        view\n        returns (\n            string memory name, \n            string memory bloodGroup,\n            string memory medicalHistory,\n            string memory title,\n            string memory description,\n            string memory date,\n            string memory BP,\n            string memory Chol\n        )\n    {\n        return getPatientData(_patientAddress);\n    }\n\n    /**\n     * @dev Resets the unconscious status of the patient to false.\n     */\n    function resetUnconsciousStatus() public {\n        require(patients[msg.sender].userId != address(0), \"Patient not found.\");\n        patients[msg.sender].isUnconscious = false;\n        emit UnconsciousStatusUpdated(msg.sender, false);\n    }\n}\n",
  "sourcePath": "/home/ahmedmsayeem/Desktop/DSU_Hospital/engine/Web3_EHR/contracts/MedicalData.sol",
  "compiler": {
    "name": "solc",
    "version": "0.8.13+commit.abaa5c0e.Emscripten.clang"
  },
  "schemaVersion": "3.4.16",
  "updatedAt": "2024-09-27T21:44:41.182Z",
  "networkType": "ethereum",
  "devdoc": {
    "details": "A smart contract for managing patient medical data.",
    "kind": "dev",
    "methods": {
      "accessPatientData(address)": {
        "details": "Accesses a patient's data and returns it if they are unconscious.",
        "params": {
          "_patientAddress": "The address of the patient."
        },
        "returns": {
          "BP": "The blood pressure reading.",
          "Chol": "The cholesterol level.",
          "bloodGroup": "The patient's blood group.",
          "date": "The date of the medical report.",
          "description": "The description of the medical report.",
          "medicalHistory": "The patient's medical history.",
          "name": "The patient's name.  ",
          "title": "The title of the medical report."
        }
      },
      "getPatientData(address)": {
        "details": "Retrieves a patient's medical data if they are unconscious.",
        "params": {
          "_patientAddress": "The address of the patient."
        },
        "returns": {
          "BP": "The blood pressure reading.",
          "Chol": "The cholesterol level.",
          "bloodGroup": "The patient's blood group.",
          "date": "The date of the medical report.",
          "description": "The description of the medical report.",
          "medicalHistory": "The patient's medical history.",
          "name": "The patient's name.  ",
          "title": "The title of the medical report."
        }
      },
      "markUnconscious(bool)": {
        "details": "Marks the patient as unconscious or conscious.",
        "params": {
          "_status": "The unconscious status to set (true for unconscious, false for conscious)."
        }
      },
      "resetUnconsciousStatus()": {
        "details": "Resets the unconscious status of the patient to false."
      },
      "setPatientData(address,string,uint256,string,string,string,string,string,string,string,string)": {
        "details": "Registers a new patient and sets their medical data.",
        "params": {
          "_BP": "The blood pressure reading.",
          "_Chol": "The cholesterol level.",
          "_age": "The patient's age.",
          "_bloodGroup": "The patient's blood group.",
          "_date": "The date of the medical report.",
          "_description": "The description of the medical report.",
          "_fingerprint": "The patient's fingerprint hash.",
          "_medicalHistory": "The patient's medical history.",
          "_name": "The patient's name.",
          "_title": "The title of the medical report.",
          "_userId": "The patient's unique identifier (address)."
        }
      }
    },
    "title": "MedicalData",
    "version": 1
  },
  "userdoc": {
    "kind": "user",
    "methods": {},
    "version": 1
  }
}