{
  "contractName": "MockOracle",
  "abi": [
    {
      "inputs": [
        {
          "internalType": "address",
          "name": "_medicalDataContract",
          "type": "address"
        }
      ],
      "stateMutability": "nonpayable",
      "type": "constructor"
    },
    {
      "anonymous": false,
      "inputs": [
        {
          "indexed": true,
          "internalType": "address",
          "name": "patientAddress",
          "type": "address"
        },
        {
          "indexed": false,
          "internalType": "uint256",
          "name": "bloodPressure",
          "type": "uint256"
        }
      ],
      "name": "VitalsUpdated",
      "type": "event"
    },
    {
      "inputs": [],
      "name": "medicalDataContract",
      "outputs": [
        {
          "internalType": "address",
          "name": "",
          "type": "address"
        }
      ],
      "stateMutability": "view",
      "type": "function",
      "constant": true
    },
    {
      "inputs": [
        {
          "internalType": "address",
          "name": "_patientAddress",
          "type": "address"
        }
      ],
      "name": "fetchAndSendVitals",
      "outputs": [],
      "stateMutability": "nonpayable",
      "type": "function"
    }
  ],
  "bytecode": "0x608060405234801561001057600080fd5b506040516104b23803806104b2833981810160405281019061003291906100db565b806000806101000a81548173ffffffffffffffffffffffffffffffffffffffff021916908373ffffffffffffffffffffffffffffffffffffffff16021790555050610108565b600080fd5b600073ffffffffffffffffffffffffffffffffffffffff82169050919050565b60006100a88261007d565b9050919050565b6100b88161009d565b81146100c357600080fd5b50565b6000815190506100d5816100af565b92915050565b6000602082840312156100f1576100f0610078565b5b60006100ff848285016100c6565b91505092915050565b61039b806101176000396000f3fe608060405234801561001057600080fd5b50600436106100365760003560e01c80633f01ea981461003b578063942f8ab814610057575b600080fd5b6100556004803603810190610050919061025d565b610075565b005b61005f6101cd565b60405161006c9190610299565b60405180910390f35b600073ffffffffffffffffffffffffffffffffffffffff168173ffffffffffffffffffffffffffffffffffffffff16036100e4576040517f08c379a00000000000000000000000000000000000000000000000000000000081526004016100db90610311565b60405180910390fd5b60006100ee6101f1565b905060008054906101000a900473ffffffffffffffffffffffffffffffffffffffff1673ffffffffffffffffffffffffffffffffffffffff16631777addb826040518263ffffffff1660e01b8152600401610149919061034a565b600060405180830381600087803b15801561016357600080fd5b505af1158015610177573d6000803e3d6000fd5b505050508173ffffffffffffffffffffffffffffffffffffffff167f809e0a14a6a9f5902bd26ef52b4523422a63cdfe58d29b2f02e0e9426d6aad7e826040516101c1919061034a565b60405180910390a25050565b60008054906101000a900473ffffffffffffffffffffffffffffffffffffffff1681565b60006078905090565b600080fd5b600073ffffffffffffffffffffffffffffffffffffffff82169050919050565b600061022a826101ff565b9050919050565b61023a8161021f565b811461024557600080fd5b50565b60008135905061025781610231565b92915050565b600060208284031215610273576102726101fa565b5b600061028184828501610248565b91505092915050565b6102938161021f565b82525050565b60006020820190506102ae600083018461028a565b92915050565b600082825260208201905092915050565b7f496e76616c69642070617469656e742061646472657373000000000000000000600082015250565b60006102fb6017836102b4565b9150610306826102c5565b602082019050919050565b6000602082019050818103600083015261032a816102ee565b9050919050565b6000819050919050565b61034481610331565b82525050565b600060208201905061035f600083018461033b565b9291505056fea2646970667358221220a7c56857fa33566e231c6082e279923c09ba5d183697bffd0841e4ba4655f71064736f6c634300080d0033",
  "immutableReferences": {},
  "source": "// SPDX-License-Identifier: MIT\r\npragma solidity ^0.8.0;\r\n\r\ninterface IMedicalData {\r\n    function updateVitals(uint _bloodPressure) external; \r\n    function getPatientData(address _patientAddress)\r\n        external\r\n        view\r\n        returns (\r\n            string memory bloodGroup,\r\n            string memory medicalHistory,\r\n            string memory title,\r\n            string memory description,\r\n            string memory date,\r\n            string memory BP,\r\n            string memory Chol \r\n        );\r\n}\r\n\r\ncontract MockOracle {\r\n    address public medicalDataContract;\r\n\r\n    constructor(address _medicalDataContract) {\r\n        medicalDataContract = _medicalDataContract;\r\n    }\r\n\r\n    function fetchAndSendVitals(address _patientAddress) external {\r\n        require(_patientAddress != address(0), \"Invalid patient address\");\r\n        uint simulatedBloodPressure = getSimulatedBloodPressure();\r\n        IMedicalData(medicalDataContract).updateVitals(simulatedBloodPressure);\r\n        emit VitalsUpdated(_patientAddress, simulatedBloodPressure);\r\n    }\r\n\r\n    function getSimulatedBloodPressure() internal pure returns (uint) {\r\n        return 120; // Example blood pressure\r\n    }\r\n\r\n    event VitalsUpdated(address indexed patientAddress, uint256 bloodPressure);\r\n}\r\n",
  "sourcePath": "C:\\Users\\dines\\Desktop\\gettest\\Web3_EHR\\contracts\\MockOracle.sol",
  "compiler": {
    "name": "solc",
    "version": "0.8.13+commit.abaa5c0e.Emscripten.clang"
  },
  "schemaVersion": "3.4.16",
  "updatedAt": "2024-09-27T19:51:04.803Z",
  "networkType": "ethereum",
  "devdoc": {
    "kind": "dev",
    "methods": {},
    "version": 1
  },
  "userdoc": {
    "kind": "user",
    "methods": {},
    "version": 1
  }
}